:020000020000FC
:1000000021C014C00EC012C011C010C00FC00EC05D
:100010000DC00CC00BC00AC009C008C008C006C093
:1000200005C010B35FB6107F12955FBE18955FB61E
:1000300055B3507F632F6F70652B65BB32958395E9
:100040005FBE1895F894479A002411271ABB1BBB72
:100050000FE50DBF02E00EBF0EEF07BB0FEF04BBB5
:1000600007E001BB03E006B93A9811242A991394DA
:10007000BB27A0E23CD029B340E30AE0203F11F0C7
:1000800041E00FE041BF03BF41E005B7086005BF95
:100090000BB700680BBF78941123F1F319D08827B0
:1000A00013D0312E02BE48BF49BF8230F0F3DF17B4
:1000B00029F4CE1719F409BE1127EECF311670F3CB
:1000C000219602D08827F1CFDE0111D039B30895EF
:1000D000AA27BB27A10F0BD0E9B3AA9508D0C9B3B3
:1000E000509605D0D9B3A39502D0F9B3089507B8B7
:1000F0002A2F277022BB2A2F207F05B30F70022BD7
:1001000005BBA3FD399AB0FD389A0EEF2B2F1120B5
:1001100069F42073229544240894441C222311F08E
:100120002A95FBCF429404252B2F206F202328BB38
:02013000089530
:00000001FF
